:020000040800F2
:1000000000200020411C0008891C0008891C0008F1
:10001000891C0008891C0008891C000800000000D9
:100020000000000000000000000000009115000822
:10003000891C000800000000311600087516000831
:10004000891C0008891C0008891C0008891C0008FC
:10005000891C0008891C0008891C0008891C0008EC
:10006000891C0008891C0008891C0008891C0008DC
:10007000891C0008891C0008891C0008891C0008CC
:10008000891C0008891C0008891C00080000000069
:10009000000000000000000000000000891C0008B3
:1000A000891C0008891C000811020008891C00082E
:1000B000891C0008891C0008891C0008891C00088C
:1000C000891C00080000000000000000891C0008D6
:1000D000891C0008891C0008891C0008891C00086C
:1000E000891C0008891C0008891C00080000000009
:1000F0000000000000000000000000000000000000
:1001000000000000000000000000000000000000EF
:100110000000000000000000891C0008891C000885
:1001200000000000000000000000000000000000CF
:1001300000000000000000000000000000000000BF
:1001400000000000000000000000000000000000AF
:10015000000000000000000000000000000000009F
:10016000000000000000000000000000000000008F
:10017000000000000000000000000000000000007F
:10018000000000000000000000000000000000006F
:10019000000000000000000000000000000000005F
:1001A000000000000000000000000000000000004F
:1001B000000000000000000000000000000000003F
:1001C0000000000000000000000000005FF808F1DF
:1001D00010B5054C227832B9044B13B10448AFF383
:1001E00000800123237010BD0C00002000000000DF
:1001F000D41C000808B5034B1BB103490348AFF3F7
:10020000008008BD0000000010000020D41C000881
:1002100008B5024800F0DFF908BD00BF740D0020EA
:1002200000B583B0114B9A6942F001029A619A6954
:1002300002F001020092009ADA6942F08052DA611B
:10024000DB6903F080530193019B00220F216FF0C3
:10025000010000F0B7FC064A536823F0E06343F066
:100260000073536003B05DF804FB00BF0010024050
:100270000000014000B589B0002201461A2000F0BC
:10028000A1FC1A2000F0D2FC144B9A6942F480229F
:100290009A619B6903F480230193019B02A903A83F
:1002A00000F064FC00F052FC0D4BA3FB00239B0C00
:1002B000013B0C480C4A026040F2E732C2604360E6
:1002C00000230361836000F093FA18B1012009B0A4
:1002D0005DF804FB034800F06EF9F8E700100240F7
:1002E00083DE1B43740D002000480140F0B50D680B
:1002F000C5F30F2595FAA5F2B2FA82F235E0A2F124
:1003000008044FF00113A34043F0806339E0C4595F
:1003100093FAA3F6B6FA86F6B6004FF0030C0CFA81
:1003200006F624EA060C93FAA3F6B6FA86F6B600A9
:100330008C6804FA06F646EA0C06C651CC6893FAB5
:10034000A3FCBCFA8CFC4FEA8C0C4FF0040E0EFAA6
:100350000CFC26EA0C0693FAA3F3B3FA83F39B0092
:1003600004FA03F33343C351013235FA02F335D0B3
:10037000012393402B42F7D0072AC0D840F2011343
:1003800093404E681F0EC45993FAA3FCBCFA8CFC30
:100390004FEA8C0C4FF00F0E0EFA0CFC24EA0C0402
:1003A00093FAA3FCBCFA8CFC4FEA8C0C06FA0CF610
:1003B0003443C451C6681C0A26EA040C94FAA4F417
:1003C000B4FA84F40E6906FA04F44CEA0404C46036
:1003D0004C68012C9BD0092CC6D198E70120F0BDB8
:1003E000836813F0010F0DD1436823F480734A68CA
:1003F00013434360836823F400630A6813438360F4
:1004000001207047002070474B68826812F0010F8E
:1004100023D110B4DBB1426822F468428C682343D4
:1004200013434360836823F4602323F481730A68D1
:10043000CC6822430C692243134383604B68C26A31
:1004400022F470021343C362012010BC704742685B
:1004500022F4684213434360E4E70020704730B45D
:100460005368056801F0100101248C40AC431ED094
:1004700083B1046840F6FA758D4024EA05041568D6
:100480002B4395682B43D26813438B40234303606F
:1004900001200DE00468FA238B4024EA030413686A
:1004A000D26813438B401C430460012000E000200D
:1004B00030BC7047F0B585B004460D46036823F0A4
:1004C00001030360684600F091FA029A6B68AE6817
:1004D0003549A1FB0201890C606820F03F00084308
:1004E0006060206A20F03F00304FBB4237D80131B6
:1004F000014321622D498B424DD9002E39D103EBA6
:100500004303B2FBF3F2C2F30B03002B3DD042F4E2
:10051000004246EA0203E26922F44F4222F0FF025F
:100520001A43E261EA686969A36823F4034323F08C
:10053000FF030A431343A3602B68226822F01A02C8
:1005400013432360236843F0010323602B6922686F
:1005500022F4806213432360012005B0F0BD4FF404
:10056000967707FB01F1124FA7FB01718909013151
:10057000BEE703EB830303EB8303B2FBF3F2C2F3A7
:100580000B032BB142F40042C3E748F20102C0E77B
:1005900048F20102BDE75B00B2FBF3F340F6FC72E8
:1005A0001342B8D10423B6E783DE1B43A0860100C3
:1005B000D34D621070470268D36843F00103D360E3
:1005C0000268136843F0010313600020704770470E
:1005D00070477047704710B5044603681A6912F0F7
:1005E000020F11D0DA6812F0020F0DD06FF0020284
:1005F0001A610123037703689B6913F0030F70D01E
:10060000FFF7E6FF0023237723681A6912F0040F2F
:1006100012D0DA6812F0040F0ED06FF004021A61E3
:100620000223237723689B6913F4407F5FD0204621
:10063000FFF7CEFF0023237723681A6912F0080F13
:1006400012D0DA6812F0080F0ED06FF008021A61AB
:10065000042323772368DB6913F0030F4ED0204671
:10066000FFF7B6FF0023237723681A6912F0100FF3
:1006700012D0DA6812F0100F0ED06FF010021A616B
:10068000082323772368DB6913F4407F3DD020469D
:10069000FFF79EFF0023237723681A6912F0010FEA
:1006A00003D0DA6812F0010F36D123681A6912F00C
:1006B000800F03D0DA6812F0800F34D123681A69F2
:1006C00012F0400F03D0DA6812F0400F32D12368E5
:1006D0001A6912F0200F03D0DA6812F0200F30D11F
:1006E00010BDFFF774FF2046FFF773FF8AE720462F
:1006F000FFF76DFF2046FFF76CFF9BE72046FFF7F3
:1007000066FF2046FFF765FFACE72046FFF75FFF77
:100710002046FFF75EFFBDE76FF001021A61204639
:1007200001F082FAC1E76FF080021A61204600F002
:100730007AF8C3E76FF040021A612046FFF74AFFDC
:10074000C5E76FF020021A61204600F06BF8C7E79A
:100750000368264A90420AD0B0F1804F07D0A2F534
:100760009432904203D002F58062904203D123F08C
:1007700070034A6813431D4A904216D0B0F1804F6F
:1007800013D0A2F5943290420FD002F580629042CD
:100790000BD002F59C32904207D002F58062904265
:1007A00003D002F58062904203D123F44073CA68FB
:1007B000134323F080034A69134303608B68C362C9
:1007C0000B688362094B98420BD003F5A053984203
:1007D00007D003F58063984203D003F58063984205
:1007E00001D10B690363012343617047002C014071
:1007F000B0B110B5044690F83D3063B1022384F8DF
:100800003D30214651F8040BFFF7A2FF012384F885
:100810003D30002010BD80F83C30FFF7CBFEEDE707
:100820000120704770477047C36813F4005F01D020
:100830000020704730B585B00D460446C36823F4E8
:10084000164323F00C034A68C9680A4329690A431E
:10085000A9690A431343C360AB68026922F440529A
:10086000134303616B69426922F44072134343618D
:10087000684600F0BBF8304B9C4208D02F4B9C429E
:100880000CD02F4B9C420BD0002005B030BD039BF9
:10089000002B4ED02A682AB90020F6E7029BF7E722
:1008A000029BF5E7A969B1F5004F20D003EB830364
:1008B00003EB83039200B3FBF2F3224DA5FB03206D
:1008C0004009020191B2642202FB1032130132335B
:1008D000A5FB0323C3F34F1303F0F0020A4492B2C3
:1008E00003F00F0313449BB2A3600120CDE703EB99
:1008F000830303EB83035200B3FBF2F3114DA5FB1B
:1009000003204009020191B2642202FB1032D3009D
:100910003233A5FB0323C3F34F135A0002F4F872DA
:100920000A4492B203F0070313449BB2A360012070
:10093000ABE70020A9E700BF0038014000440040B9
:10094000004800401F85EB51034B5B68C3F3031362
:10095000024AD35CD840704700100240EC1C0008EB
:10096000034B5B68C3F30223024AD35CD840704751
:1009700000100240FC1C0008034B5B68C3F3C22359
:10098000024AD35CD840704700100240FC1C0008AB
:100990000B4B5B6803F4803343B90A48084B5B6830
:1009A000C3F38343023300FB03F07047044BD86A60
:1009B00000F00F00431C0448B0FBF3F0EEE700BF6B
:1009C0000010024000093D0000127A0008B5054BF6
:1009D0005B6803F00C03082B01D0034808BDFFF748
:1009E000D7FFFBE70010024000127A0010B5044662
:1009F000FFF7ECFF2060FFF7A7FF6060FFF7B0FF95
:100A0000A0606068FFF7B8FFE06010BD054BA3FB76
:100A1000003080090138044B586000229A6005229A
:100A20001A607047D34D621010E000E0014B18606F
:100A3000704700BF0400002003460279002A55D009
:100A40000268002A5FD010B4407901281AD041B260
:100A500069B1022820D000209A7932B1022A30D020
:100A6000032A39D0012A21D0002010BC7047274921
:100A7000486820EA02024A601A68086802430A606D
:100A80000120E9E721490C6824EA02020A601A6899
:100A90004C6822434A60DFE71C49086802430A6049
:100AA0001A68486802434A600120D5E71C68174A63
:100AB000D16821EA0401D1601B6891680B439360FF
:100AC000D3E71C68114A916821EA040191601B6810
:100AD000D1680B43D360C8E719680C4A9468214376
:100AE00091601B68D1680B43D360BEE70068074A7A
:100AF000116821EA000111601968536823EA0103B3
:100B00005360012070470120704700BF000401407E
:100B100008B5032000F044F80020FFF7ABFBFFF717
:100B20007FFB002008BD0000034A1168034B1B78BF
:100B30000B441360704700BFB40D0020000000207C
:100B4000014B1868704700BF0400002008B5FFF78C
:100B5000F7FF044B5B68C3F3C223034AD35CD8405E
:100B600008BD00BF00100240FC1C00080F230360FA
:100B70000A4B5A6802F0030242605A6802F0F0021F
:100B800082605A6802F4E062C2605B68DB0803F4CA
:100B9000E063036100230B60704700BF0010024058
:100BA000074AD36823F4E0631B041B0C000200F423
:100BB000E060184340F0BF6040F40030D060704700
:100BC00000ED00E030B4174BDB68C3F30223C3F140
:100BD0000704042C28BF04241D1D062D01D9033B46
:100BE00000E000234FF0FF3505FA04F421EA040188
:100BF000994005FA03F322EA03031943002809DBAD
:100C00000901C9B200F1604000F5614080F80013AD
:100C100030BC704700F00F000901C9B2024B1954F3
:100C2000F6E700BF00ED00E014ED00E000F01F0269
:100C3000400901239340024A42F82030704700BF28
:100C400000E100E0104B1A6842F001021A60596896
:100C50000E4A0A405A601A6822F0847222F48032E6
:100C60001A601A6822F480221A605A6822F4FE027E
:100C70005A604FF41F029A600022DA62044B4FF070
:100C800000629A60704700BF001002400000FFF849
:100C900000ED00E000F1080343604FF0FF32826096
:100CA000C360036100230360704700230361704742
:100CB00043684B609A688A60516099600861036874
:100CC0000133036070470369416882688A60416844
:100CD00051605A68824205D00022026118680138CA
:100CE0001860704782685A60F6E70000084B1B687E
:100CF0001B6823B9074B4FF0FF321A607047044B53
:100D00001B68DB68DB685A68024B1A60704700BFDB
:100D10002C0000200401002010B50446006B00F0F8
:100D2000C1FB204600F0BEFB10BD2DE9F047804618
:100D30009946089D099F0A9C266B02F18042013A60
:100D400006EB820626F0070600230F2B06D8CA5CA6
:100D5000E01880F834200AB10133F6E7002384F864
:100D60004330062D00D90625E56265644FF0000A80
:100D7000C4F848A0201DFFF798FF04F11800FFF702
:100D800094FF2461C5F10705A5616462C4F84CA015
:100D900084F850A04A464146304600F0E5FB20600A
:100DA00007B13C60BDE8F08738B50024062C08D8B0
:100DB00004EB840293000E481844FFF76BFF0134E4
:100DC000F4E70C4D2846FFF765FF0B4C2046FFF774
:100DD00061FF0A48FFF75EFF0948FFF75BFF09481C
:100DE000FFF758FF084B1D60084B1C6038BD00BF63
:100DF00034000020D8000020EC0000200C0100206E
:100E000038010020240100202C00002030000020A8
:100E100010B5044600F0CEFB204A1368013313607E
:100E20001F4B1B685BB11F4B1B686BB91C4B1B68CE
:100E3000DA6AE36A9A4207D8194B1C6004E0184B3F
:100E40001C601368012B26D0174A13680133136006
:100E5000E36A01229A401549086802430A6003EBDD
:100E600083039A00211D12481044FFF721FF00F070
:100E7000C3FB0C4B1B686BB1094B1B68DA6AE36A56
:100E80009A4207D20B4B4FF080521A60BFF34F8F3C
:100E9000BFF36F8F10BDFFF787FFD5E7C0000020BD
:100EA0002800002020010020D0000020D4000020D5
:100EB0003400002004ED00E02DE9F04385B0074642
:100EC000884614469946900000F068FAE8B1064654
:100ED000542000F063FA054698B10663D5B10023AB
:100EE000039302950D9B01930C9B00934B46224666
:100EF00041463846FFF719FF2846FFF789FF0120D2
:100F000005E0304600F0CEFAE8E74FF0FF3005B0DC
:100F1000BDE8F0834FF0FF30F9E7000000B583B083
:100F2000174B019300230093802216491648FFF7C0
:100F3000C3FF012805D0B0F1FF3F17D003B05DF823
:100F400004FB4FF0500383F31188BFF36F8FBFF39F
:100F50004F8F0E4B4FF0FF321A600D4B01221A607B
:100F60000C4B00221A6000F0B1FBE7E74FF0500392
:100F700083F31188BFF36F8FBFF34F8FFEE700BF7E
:100F800000010020041D00081512000804010020C3
:100F9000200100204C010020024A13680133136035
:100FA000704700BFCC000020F8B53A4B1B68002BFF
:100FB00064D1394B1D6801351D60C5B9374B1B68BD
:100FC0001B6843B14FF0500383F31188BFF36F8F59
:100FD000BFF34F8FFEE7314A1168314B186810603C
:100FE0001960304A136801331360FFF77FFE2E4B00
:100FF0001B68AB4238D900242C4B1B68DB6A03EB1F
:1010000083039A002A4B9B58012B3CD901243AE0D8
:101010000124224B1B681B6843B3204B1B68DB6811
:10102000DE6873689D4226D3371D3846FFF74BFEB6
:10103000B36A1BB106F11800FFF745FEF36A0122FF
:101040009A401C49086802430A6003EB83039A0034
:10105000394617481044FFF72BFEF26A134B1B6802
:10106000DB6A9A42D4D2D4E70024D2E70E4B4FF089
:10107000FF321A60C0E70C4A1360BDE70E4A1368DE
:101080000133136000240D4B1B6803B1012420467B
:10109000F8BD00BFCC0000204C0100202C00002037
:1010A000300000200801002004010020280000205A
:1010B00034000020D4000020C8000020500100208F
:1010C00038B5344B1B6843B94FF0500383F3118894
:1010D000BFF36F8FBFF34F8FFEE700F06BFA2D4B1E
:1010E0001A68013A1A601B68002B4DD12A4B1B6805
:1010F0000BB9002449E00024284B1B681BB3274B85
:10110000DB68DC6804F11800FFF7DDFD251D2846CB
:10111000FFF7D9FDE36A01229A402149086802439A
:101120000A6003EB83039A0029461E481044FFF728
:10113000BFFDE26A1C4B1B68DB6A9A42DCD31B4B87
:1011400001221A60D8E70CB1FFF7D0FD184B1C68DC
:1011500074B9164B1C68C4B1164B4FF080521A601C
:10116000BFF34F8FBFF36F8F01240EE0013C07D018
:10117000FFF71AFF0028F9D00C4B01221A60F5E79F
:101180000B4B00221A60E4E7002400F035FA2046F9
:1011900038BD00BFCC000020C00000200C010020A2
:1011A000D40000203400002028000020500100203E
:1011B000C800002004ED00E0134B1B681BB310B502
:1011C00002E0114B1B68EBB1FFF7E6FE0F4B1C680A
:1011D000FFF776FF002CF4D000F0ECF90B4BDB6846
:1011E000DC68201DFFF76FFD094A1368013B13609F
:1011F000054A1368013B136000F0FEF92046FFF733
:101200008BFDDEE710BD7047C400002038010020D0
:10121000C000002008B5FFF7CFFF064B1B68012B6D
:10122000F9D9054B4FF080521A60BFF34F8FBFF3CF
:101230006F8FF0E73400002004ED00E0204B1B68C6
:101240001BB1204B01221A6070471E4B00221A600E
:101250001D4B1B68B3FA83F3DBB2C3F11F0303EB2F
:1012600083018A0019498A5842B94FF0500383F329
:101270001188BFF36F8FBFF34F8FFEE710B4134891
:101280009A00D418A10001444C6864684C601A4468
:1012900091000831084484420AD003EB83039A008A
:1012A0000A4B13445B68DA68094B1A6010BC70473C
:1012B000606803EB83029100044A0A445060ECE743
:1012C000CC00002050010020D40000203400002079
:1012D0002800002008B5FFF721FE002008BD00000F
:1012E000124A12F0070F07D0D11D21F00701C1F5F6
:1012F000406313440A4601E04FF440630C48026027
:10130000002141601344083B23F0070309480360B0
:1013100059601960991A51601360074B1960074BA7
:101320001960074B4FF000421A60704758010020C7
:10133000640D002054010020600D00205C0D002091
:10134000580D002010B4134A00E01A461368834277
:10135000FBD351685418844209D041684418A34211
:101360000AD00360904200D0106010BC7047406803
:10137000014451601046F0E7074C2468A34206D0B0
:101380005B681944416013681B680360EAE7046006
:10139000E8E700BF640D00205401002070B504464A
:1013A000FFF7FAFD3A4B1B68BBB13A4B1B681C4276
:1013B00056D1ACB1083414F0070F11D024F0070453
:1013C000083404F007035BB14FF0500383F3118836
:1013D000BFF36F8FBFF34F8FFEE7FFF781FFE4E7A7
:1013E000002C3FD02C4B1B68A3424AD32B4B1D68CB
:1013F00001E02B4615466A68A24202D22A68002AFA
:10140000F7D1234A1268AA423DD01E6808362A68DE
:101410001A606B681B1B102B10D9281910F0070FCE
:1014200008D04FF0500383F31188BFF36F8FBFF3E1
:101430004F8FFEE743606C60FFF784FF6A681649D0
:101440000B689B1A0B60164909688B4201D214493C
:101450000B60104B1B6813436B6000232B6002E092
:10146000002600E00026FFF72BFE16F0070F0CD039
:101470004FF0500383F31188BFF36F8FBFF34F8F8B
:10148000FEE70026EFE70026EDE7304670BD00BF1F
:1014900054010020580D00205C0D0020640D002038
:1014A000600D002080B338B50446A0F1080550F85F
:1014B000042C164909680A4208D14FF0500383F3FF
:1014C0001188BFF36F8FBFF34F8FFEE750F8080C02
:1014D00040B14FF0500383F31188BFF36F8FBFF318
:1014E0004F8FFEE722EA010244F8042CFFF754FD77
:1014F00054F8041C064A13680B4413602846FFF78F
:1015000021FFFFF7DDFD38BD704700BF580D0020FB
:101510005C0D00200B4B1B68B3F1FF3F08D04FF070
:10152000500383F31188BFF36F8FBFF34F8FFEE734
:101530004FF0500383F31188BFF36F8FBFF34F8FCA
:10154000FEE700BF0800002006480068006880F33E
:10155000088862B661B6BFF34F8FBFF36F8F00DFAD
:1015600000BF000008ED00E04FF0807340F8043C3D
:1015700021F0010140F8081C034B40F80C3C40F8F6
:10158000202C4038704700BF1515000800000000EF
:10159000074B19680868B0E8F00F80F30988BFF3BB
:1015A0006F8F4FF0000080F311884EF00D0E7047E2
:1015B000280000204FF0500383F31188BFF36F8F92
:1015C000BFF34F8F0A4A136801331360012B00D019
:1015D0007047084B1B6813F0FF0FF9D04FF0500312
:1015E00083F31188BFF36F8FBFF34F8FFEE700BF08
:1015F0000800002004ED00E0094B1B6843B94FF0E0
:10160000500383F31188BFF36F8FBFF34F8FFEE753
:10161000013B034A13600BB983F31188704700BF85
:101620000800002000000000000000000000000092
:10163000EFF30980BFF36F8F0D4B1A6820E9F00FAD
:1016400010602DE908404FF0500080F31188FFF73B
:10165000F5FD4FF0000080F31188BDE808401968DF
:101660000868B0E8F00F80F30988BFF36F8F704708
:101670002800002008B54FF0500383F31188BFF312
:101680006F8FBFF34F8FFFF78FFC18B1034B4FF0F5
:1016900080521A60002383F3118808BD04ED00E036
:1016A000064B1B68064AA2FB03239B09013B054A24
:1016B0001360054B07221A60704700BF040000202A
:1016C000D34D621014E000E010E000E000B583B0FC
:1016D0001F4B1A78D2B20192FF221A701B78DBB22C
:1016E0008DF803309DF8033003F05003194A13704E
:1016F000194B07221A609DF8033013F0800F0AD0AF
:10170000154A1368013B13609DF803305B00DBB2A0
:101710008DF80330EFE7104A13681B0203F4E0630F
:101720001360019BDBB20A4A13700C4B1A6842F437
:1017300070021A601A6842F070421A60FFF7B0FF38
:10174000074B00221A60FFF7FFFEFFF7E3FE00BF22
:1017500000E400E06C0D0020700D002020ED00E0A2
:101760000800002070B58CB000230A930B930893F7
:10177000099303F1804303F504339A6942F01002A0
:101780009A619A6902F010020492049A9A6942F0EE
:1017900020029A619A6902F020020392039A9A69E0
:1017A00042F004029A619A6902F004020292029ADB
:1017B0009A6942F008029A619B6903F00803019359
:1017C000019B33484FF460434361324B059301263C
:1017D00006960223079305A9FEF788FD2E4B059375
:1017E000042506952D4C05A92046FEF77FFD2C4BC0
:1017F000DA6822F470624FF4706191FAA1F1DA6054
:10180000DA6822F470424FF4704191FAA1F1DA6083
:1018100040230A938DF82C608DF82D608DF82E6092
:101820000AA8FFF709F980230A938DF82C608DF838
:101830002D608DF82E600AA8FFF7FEF8226844F2AA
:10184000400393FAA3F1B1FA81F189000F2000FA65
:1018500001F122EA010293FAA3F3B3FA83F39B00A6
:1018600005FA03F3134348F2800191FAA1F2B2FAA8
:1018700082F29200904023EA000391FAA1F1B1FABA
:1018800081F189008D402B4323600CB070BD00BFF7
:1018900000100140E000E0040800080400080140D6
:1018A0000000014030B591B000240E940F940994CB
:1018B0000A940B940C940D94059406940794089440
:1018C000324B9A6942F400729A619A6902F400728A
:1018D0000392039A9A6942F004029A619A6902F0AB
:1018E00004020292029A9A6942F008029A619B6984
:1018F00003F008030193019B40F20333049304A90E
:101900002348FEF7F3FC40F201130493059404A965
:101910002048FEF7EBFC0E940F941F4D0EA92846AD
:10192000FEF75EFD4FF46023099301230A930B94A5
:101930000C940D9409A92846FEF766FD17494FF44B
:10194000407393FAA3F3B3FA83F34FF4007222FACD
:1019500003F351F8232022F01F0241F823201048FE
:101960004FF0007393FAA3F2B2FA82F2D34050F828
:1019700023204FF0F87191FAA1F422F0070291FAB6
:10198000A1F140F8232011B030BD00BF001002408B
:1019900000080140000C0140002401402C240140BB
:1019A0000C24014010B58CB00024089409940A94CA
:1019B0000B940494059406940794194BDA6942F049
:1019C0000052DA61DA6902F000520292029A9A69D0
:1019D00042F004029A619B6903F004030193019BA6
:1019E00043F23003039303A90E48FEF77FFC38232C
:1019F000089309940B940C4C08AA0C492046FEF756
:101A00002EFD236823F00403236008AA084920461A
:101A1000FEF725FD236823F4802323600CB010BD5E
:101A20000010024000080140007400400100100254
:101A30001200431530B58FB00024089409940A941D
:101A40000B940C940D940794214DAB6943F008035B
:101A5000AB61AB6903F008030293029B4CF2C00335
:101A6000039309230493032305930423069303A9F3
:101A70001848FEF73BFCEB6943F40013EB61EB699C
:101A800003F400130193019BA5F5DE35EB6823F009
:101A90000103EB602B6823F040032B602B6823F0DD
:101AA00080032B6008940C4B09930A940B944FF419
:101AB00080630C934FF480430D9308A92846FEF7EA
:101AC000F9FCEB6823F0FE03EB600FB030BD00BF04
:101AD00000100240000C0140A086010030B58FB01C
:101AE00000240794089409940A940B940C940D9480
:101AF00005940694224BDA6942F40032DA61DA691D
:101B000002F400320192019A9A6942F004029A6149
:101B10009B6903F004030093009B40F2044302938B
:101B20000923039303230493164D02A92846FEF7C5
:101B3000DDFB40F6080302930423039302A9284621
:101B4000FEF7D4FB4FF4E1330793089409940A9409
:101B50000C230B930C940D940B4C07A92046FEF715
:101B600063FE236923F490432361636923F02A030E
:101B70006361E36843F40053E3600FB030BD00BF1E
:101B800000100240000801400044004010B51A4A0D
:101B9000136843F480331360174B1B6813F4003F42
:101BA000FAD0154B5A6822F0F0025A605A6822F4B3
:101BB000E0625A605A6822F460525A605A6822F011
:101BC000030242F001025A600B4B5B6803F00C0306
:101BD000042BF9D1094C2046FEF718FF084A136878
:101BE00043F0040313602046FEF720FF024A5368C7
:101BF00023F44043536010BD0010024000127A00ED
:101C000010E000E008B5FEF783FFFFF7BFFFFFF726
:101C1000A9FDFFF747FEFFF7C5FEFFF70BFFFFF734
:101C20005DFFFFF757FBFEE708B50268034B9A42DA
:101C300000D008BDFEF778FFFBE700BF0048014079
:101C4000002103E00B4B5B58435004310A480B4B17
:101C500042189A42F6D30A4A02E0002342F8043BB3
:101C6000084B9A42F9D3FEF7EDFF00F00FF8FFF7AB
:101C7000C9FF7047141D0008000000200C00002060
:101C80000C000020B80D0020FEE7000070B5002613
:101C90000C4D0D4C641BA410A64209D100F01AF89B
:101CA00000260A4D0A4C641BA410A64205D170BD43
:101CB00055F8043B98470136EEE755F8043B984742
:101CC0000136F2E70C1D00080C1D00080C1D000871
:101CD000101D0008F8B500BFF8BC08BC9E46704750
:0C1CE000F8B500BFF8BC08BC9E46704779
:101CEC0000000000000000000102030406070809C0
:101CFC00000000000102030449444C4500000000B0
:041D0C00F5010008D5
:041D1000D1010008F5
:0C1D14000100000000366E01AAAAAAAA75
:0400000508001C4192
:00000001FF
